{
  "_format": "hh-sol-artifact-1",
  "contractName": "Collection",
  "sourceName": "contracts/Collection.sol",
  "abi": [
    {
      "inputs": [],
      "stateMutability": "nonpayable",
      "type": "constructor"
    },
    {
      "anonymous": false,
      "inputs": [
        {
          "indexed": true,
          "internalType": "address",
          "name": "owner",
          "type": "address"
        },
        {
          "indexed": true,
          "internalType": "address",
          "name": "approved",
          "type": "address"
        },
        {
          "indexed": true,
          "internalType": "uint256",
          "name": "tokenId",
          "type": "uint256"
        }
      ],
      "name": "Approval",
      "type": "event"
    },
    {
      "anonymous": false,
      "inputs": [
        {
          "indexed": true,
          "internalType": "address",
          "name": "owner",
          "type": "address"
        },
        {
          "indexed": true,
          "internalType": "address",
          "name": "operator",
          "type": "address"
        },
        {
          "indexed": false,
          "internalType": "bool",
          "name": "approved",
          "type": "bool"
        }
      ],
      "name": "ApprovalForAll",
      "type": "event"
    },
    {
      "anonymous": false,
      "inputs": [
        {
          "indexed": false,
          "internalType": "uint256",
          "name": "_fromTokenId",
          "type": "uint256"
        },
        {
          "indexed": false,
          "internalType": "uint256",
          "name": "_toTokenId",
          "type": "uint256"
        }
      ],
      "name": "BatchMetadataUpdate",
      "type": "event"
    },
    {
      "anonymous": false,
      "inputs": [
        {
          "indexed": false,
          "internalType": "uint256",
          "name": "_tokenId",
          "type": "uint256"
        }
      ],
      "name": "MetadataUpdate",
      "type": "event"
    },
    {
      "anonymous": false,
      "inputs": [
        {
          "indexed": true,
          "internalType": "address",
          "name": "previousOwner",
          "type": "address"
        },
        {
          "indexed": true,
          "internalType": "address",
          "name": "newOwner",
          "type": "address"
        }
      ],
      "name": "OwnershipTransferred",
      "type": "event"
    },
    {
      "anonymous": false,
      "inputs": [
        {
          "indexed": true,
          "internalType": "address",
          "name": "from",
          "type": "address"
        },
        {
          "indexed": true,
          "internalType": "address",
          "name": "to",
          "type": "address"
        },
        {
          "indexed": true,
          "internalType": "uint256",
          "name": "tokenId",
          "type": "uint256"
        }
      ],
      "name": "Transfer",
      "type": "event"
    },
    {
      "inputs": [],
      "name": "LIMIT_PER_ADDRESS",
      "outputs": [
        {
          "internalType": "uint256",
          "name": "",
          "type": "uint256"
        }
      ],
      "stateMutability": "view",
      "type": "function"
    },
    {
      "inputs": [],
      "name": "MAX_SUPPLY",
      "outputs": [
        {
          "internalType": "uint256",
          "name": "",
          "type": "uint256"
        }
      ],
      "stateMutability": "view",
      "type": "function"
    },
    {
      "inputs": [],
      "name": "PRICE_PER_TOKEN",
      "outputs": [
        {
          "internalType": "uint256",
          "name": "",
          "type": "uint256"
        }
      ],
      "stateMutability": "view",
      "type": "function"
    },
    {
      "inputs": [
        {
          "internalType": "address",
          "name": "to",
          "type": "address"
        },
        {
          "internalType": "uint256",
          "name": "tokenId",
          "type": "uint256"
        }
      ],
      "name": "approve",
      "outputs": [],
      "stateMutability": "nonpayable",
      "type": "function"
    },
    {
      "inputs": [
        {
          "internalType": "address",
          "name": "owner",
          "type": "address"
        }
      ],
      "name": "balanceOf",
      "outputs": [
        {
          "internalType": "uint256",
          "name": "",
          "type": "uint256"
        }
      ],
      "stateMutability": "view",
      "type": "function"
    },
    {
      "inputs": [
        {
          "internalType": "uint256",
          "name": "tokenId",
          "type": "uint256"
        }
      ],
      "name": "getApproved",
      "outputs": [
        {
          "internalType": "address",
          "name": "",
          "type": "address"
        }
      ],
      "stateMutability": "view",
      "type": "function"
    },
    {
      "inputs": [
        {
          "internalType": "address",
          "name": "owner",
          "type": "address"
        },
        {
          "internalType": "address",
          "name": "operator",
          "type": "address"
        }
      ],
      "name": "isApprovedForAll",
      "outputs": [
        {
          "internalType": "bool",
          "name": "",
          "type": "bool"
        }
      ],
      "stateMutability": "view",
      "type": "function"
    },
    {
      "inputs": [
        {
          "internalType": "string",
          "name": "tokenURI",
          "type": "string"
        }
      ],
      "name": "mintNFT",
      "outputs": [
        {
          "internalType": "uint256",
          "name": "",
          "type": "uint256"
        }
      ],
      "stateMutability": "payable",
      "type": "function"
    },
    {
      "inputs": [],
      "name": "name",
      "outputs": [
        {
          "internalType": "string",
          "name": "",
          "type": "string"
        }
      ],
      "stateMutability": "view",
      "type": "function"
    },
    {
      "inputs": [],
      "name": "owner",
      "outputs": [
        {
          "internalType": "address",
          "name": "",
          "type": "address"
        }
      ],
      "stateMutability": "view",
      "type": "function"
    },
    {
      "inputs": [
        {
          "internalType": "uint256",
          "name": "tokenId",
          "type": "uint256"
        }
      ],
      "name": "ownerOf",
      "outputs": [
        {
          "internalType": "address",
          "name": "",
          "type": "address"
        }
      ],
      "stateMutability": "view",
      "type": "function"
    },
    {
      "inputs": [],
      "name": "renounceOwnership",
      "outputs": [],
      "stateMutability": "nonpayable",
      "type": "function"
    },
    {
      "inputs": [
        {
          "internalType": "address",
          "name": "from",
          "type": "address"
        },
        {
          "internalType": "address",
          "name": "to",
          "type": "address"
        },
        {
          "internalType": "uint256",
          "name": "tokenId",
          "type": "uint256"
        }
      ],
      "name": "safeTransferFrom",
      "outputs": [],
      "stateMutability": "nonpayable",
      "type": "function"
    },
    {
      "inputs": [
        {
          "internalType": "address",
          "name": "from",
          "type": "address"
        },
        {
          "internalType": "address",
          "name": "to",
          "type": "address"
        },
        {
          "internalType": "uint256",
          "name": "tokenId",
          "type": "uint256"
        },
        {
          "internalType": "bytes",
          "name": "data",
          "type": "bytes"
        }
      ],
      "name": "safeTransferFrom",
      "outputs": [],
      "stateMutability": "nonpayable",
      "type": "function"
    },
    {
      "inputs": [
        {
          "internalType": "address",
          "name": "operator",
          "type": "address"
        },
        {
          "internalType": "bool",
          "name": "approved",
          "type": "bool"
        }
      ],
      "name": "setApprovalForAll",
      "outputs": [],
      "stateMutability": "nonpayable",
      "type": "function"
    },
    {
      "inputs": [
        {
          "internalType": "uint256",
          "name": "limit",
          "type": "uint256"
        }
      ],
      "name": "setLimit",
      "outputs": [],
      "stateMutability": "nonpayable",
      "type": "function"
    },
    {
      "inputs": [
        {
          "internalType": "uint256",
          "name": "max_supply",
          "type": "uint256"
        }
      ],
      "name": "setMaxSupply",
      "outputs": [],
      "stateMutability": "nonpayable",
      "type": "function"
    },
    {
      "inputs": [
        {
          "internalType": "uint256",
          "name": "price",
          "type": "uint256"
        }
      ],
      "name": "setPrice",
      "outputs": [],
      "stateMutability": "nonpayable",
      "type": "function"
    },
    {
      "inputs": [
        {
          "internalType": "bytes4",
          "name": "interfaceId",
          "type": "bytes4"
        }
      ],
      "name": "supportsInterface",
      "outputs": [
        {
          "internalType": "bool",
          "name": "",
          "type": "bool"
        }
      ],
      "stateMutability": "view",
      "type": "function"
    },
    {
      "inputs": [],
      "name": "symbol",
      "outputs": [
        {
          "internalType": "string",
          "name": "",
          "type": "string"
        }
      ],
      "stateMutability": "view",
      "type": "function"
    },
    {
      "inputs": [
        {
          "internalType": "uint256",
          "name": "tokenId",
          "type": "uint256"
        }
      ],
      "name": "tokenURI",
      "outputs": [
        {
          "internalType": "string",
          "name": "",
          "type": "string"
        }
      ],
      "stateMutability": "view",
      "type": "function"
    },
    {
      "inputs": [
        {
          "internalType": "address",
          "name": "from",
          "type": "address"
        },
        {
          "internalType": "address",
          "name": "to",
          "type": "address"
        },
        {
          "internalType": "uint256",
          "name": "tokenId",
          "type": "uint256"
        }
      ],
      "name": "transferFrom",
      "outputs": [],
      "stateMutability": "nonpayable",
      "type": "function"
    },
    {
      "inputs": [
        {
          "internalType": "address",
          "name": "newOwner",
          "type": "address"
        }
      ],
      "name": "transferOwnership",
      "outputs": [],
      "stateMutability": "nonpayable",
      "type": "function"
    },
    {
      "inputs": [],
      "name": "withdrawMoney",
      "outputs": [],
      "stateMutability": "nonpayable",
      "type": "function"
    }
  ],
  "bytecode": "0x6080604052662386f26fc10000600c556002600d556005600e553480156200002657600080fd5b506040518060400160405280600a81526020017f436f6c6c656374696f6e000000000000000000000000000000000000000000008152506040518060400160405280600381526020017f4e465400000000000000000000000000000000000000000000000000000000008152508160009081620000a4919062000427565b508060019081620000b6919062000427565b505050620000d9620000cd620000df60201b60201c565b620000e760201b60201c565b6200050e565b600033905090565b6000600760009054906101000a900473ffffffffffffffffffffffffffffffffffffffff16905081600760006101000a81548173ffffffffffffffffffffffffffffffffffffffff021916908373ffffffffffffffffffffffffffffffffffffffff1602179055508173ffffffffffffffffffffffffffffffffffffffff168173ffffffffffffffffffffffffffffffffffffffff167f8be0079c531659141344cd1fd0a4f28419497f9722a3daafe3b4186f6b6457e060405160405180910390a35050565b600081519050919050565b7f4e487b7100000000000000000000000000000000000000000000000000000000600052604160045260246000fd5b7f4e487b7100000000000000000000000000000000000000000000000000000000600052602260045260246000fd5b600060028204905060018216806200022f57607f821691505b602082108103620002455762000244620001e7565b5b50919050565b60008190508160005260206000209050919050565b60006020601f8301049050919050565b600082821b905092915050565b600060088302620002af7fffffffffffffffffffffffffffffffffffffffffffffffffffffffffffffffff8262000270565b620002bb868362000270565b95508019841693508086168417925050509392505050565b6000819050919050565b6000819050919050565b60006200030862000302620002fc84620002d3565b620002dd565b620002d3565b9050919050565b6000819050919050565b6200032483620002e7565b6200033c62000333826200030f565b8484546200027d565b825550505050565b600090565b6200035362000344565b6200036081848462000319565b505050565b5b8181101562000388576200037c60008262000349565b60018101905062000366565b5050565b601f821115620003d757620003a1816200024b565b620003ac8462000260565b81016020851015620003bc578190505b620003d4620003cb8562000260565b83018262000365565b50505b505050565b600082821c905092915050565b6000620003fc60001984600802620003dc565b1980831691505092915050565b6000620004178383620003e9565b9150826002028217905092915050565b6200043282620001ad565b67ffffffffffffffff8111156200044e576200044d620001b8565b5b6200045a825462000216565b620004678282856200038c565b600060209050601f8311600181146200049f57600084156200048a578287015190505b62000496858262000409565b86555062000506565b601f198416620004af866200024b565b60005b82811015620004d957848901518255600182019150602085019450602081019050620004b2565b86831015620004f95784890151620004f5601f891682620003e9565b8355505b6001600288020188555050505b505050505050565b6135d6806200051e6000396000f3fe60806040526004361061014b5760003560e01c8063715018a6116100b6578063ac4460021161006f578063ac4460021461047c578063b88d4fde14610493578063c87b56dd146104bc578063e985e9c5146104f9578063f2fde38b14610536578063fb37e8831461055f5761014b565b8063715018a614610392578063833b9499146103a95780638da5cb5b146103d457806391b7f5ed146103ff57806395d89b4114610428578063a22cb465146104535761014b565b806332cb6b0c1161010857806332cb6b0c14610270578063417bac1a1461029b57806342842e0e146102c65780636352211e146102ef5780636f8b44b01461032c57806370a08231146103555761014b565b806301ffc9a71461015057806306fdde031461018d578063081812fc146101b8578063095ea7b3146101f557806323b872dd1461021e57806327ea6f2b14610247575b600080fd5b34801561015c57600080fd5b506101776004803603810190610172919061216e565b61058f565b60405161018491906121b6565b60405180910390f35b34801561019957600080fd5b506101a26105f0565b6040516101af9190612261565b60405180910390f35b3480156101c457600080fd5b506101df60048036038101906101da91906122b9565b610682565b6040516101ec9190612327565b60405180910390f35b34801561020157600080fd5b5061021c6004803603810190610217919061236e565b6106c8565b005b34801561022a57600080fd5b50610245600480360381019061024091906123ae565b6107df565b005b34801561025357600080fd5b5061026e600480360381019061026991906122b9565b61083f565b005b34801561027c57600080fd5b50610285610851565b6040516102929190612410565b60405180910390f35b3480156102a757600080fd5b506102b0610857565b6040516102bd9190612410565b60405180910390f35b3480156102d257600080fd5b506102ed60048036038101906102e891906123ae565b61085d565b005b3480156102fb57600080fd5b50610316600480360381019061031191906122b9565b61087d565b6040516103239190612327565b60405180910390f35b34801561033857600080fd5b50610353600480360381019061034e91906122b9565b610903565b005b34801561036157600080fd5b5061037c6004803603810190610377919061242b565b610915565b6040516103899190612410565b60405180910390f35b34801561039e57600080fd5b506103a76109cc565b005b3480156103b557600080fd5b506103be6109e0565b6040516103cb9190612410565b60405180910390f35b3480156103e057600080fd5b506103e96109e6565b6040516103f69190612327565b60405180910390f35b34801561040b57600080fd5b50610426600480360381019061042191906122b9565b610a10565b005b34801561043457600080fd5b5061043d610a22565b60405161044a9190612261565b60405180910390f35b34801561045f57600080fd5b5061047a60048036038101906104759190612484565b610ab4565b005b34801561048857600080fd5b50610491610aca565b005b34801561049f57600080fd5b506104ba60048036038101906104b591906125f9565b610b21565b005b3480156104c857600080fd5b506104e360048036038101906104de91906122b9565b610b83565b6040516104f09190612261565b60405180910390f35b34801561050557600080fd5b50610520600480360381019061051b919061267c565b610c95565b60405161052d91906121b6565b60405180910390f35b34801561054257600080fd5b5061055d6004803603810190610558919061242b565b610d29565b005b6105796004803603810190610574919061275d565b610dac565b6040516105869190612410565b60405180910390f35b6000634906490660e01b7bffffffffffffffffffffffffffffffffffffffffffffffffffffffff1916827bffffffffffffffffffffffffffffffffffffffffffffffffffffffff191614806105e957506105e882611057565b5b9050919050565b6060600080546105ff906127d5565b80601f016020809104026020016040519081016040528092919081815260200182805461062b906127d5565b80156106785780601f1061064d57610100808354040283529160200191610678565b820191906000526020600020905b81548152906001019060200180831161065b57829003601f168201915b5050505050905090565b600061068d82611139565b6004600083815260200190815260200160002060009054906101000a900473ffffffffffffffffffffffffffffffffffffffff169050919050565b60006106d38261087d565b90508073ffffffffffffffffffffffffffffffffffffffff168373ffffffffffffffffffffffffffffffffffffffff1603610743576040517f08c379a000000000000000000000000000000000000000000000000000000000815260040161073a90612878565b60405180910390fd5b8073ffffffffffffffffffffffffffffffffffffffff16610762611184565b73ffffffffffffffffffffffffffffffffffffffff16148061079157506107908161078b611184565b610c95565b5b6107d0576040517f08c379a00000000000000000000000000000000000000000000000000000000081526004016107c79061290a565b60405180910390fd5b6107da838361118c565b505050565b6107f06107ea611184565b82611245565b61082f576040517f08c379a00000000000000000000000000000000000000000000000000000000081526004016108269061299c565b60405180910390fd5b61083a8383836112da565b505050565b6108476115d3565b80600d8190555050565b600e5481565b600d5481565b61087883838360405180602001604052806000815250610b21565b505050565b60008061088983611651565b9050600073ffffffffffffffffffffffffffffffffffffffff168173ffffffffffffffffffffffffffffffffffffffff16036108fa576040517f08c379a00000000000000000000000000000000000000000000000000000000081526004016108f190612a08565b60405180910390fd5b80915050919050565b61090b6115d3565b80600e8190555050565b60008073ffffffffffffffffffffffffffffffffffffffff168273ffffffffffffffffffffffffffffffffffffffff1603610985576040517f08c379a000000000000000000000000000000000000000000000000000000000815260040161097c90612a9a565b60405180910390fd5b600360008373ffffffffffffffffffffffffffffffffffffffff1673ffffffffffffffffffffffffffffffffffffffff168152602001908152602001600020549050919050565b6109d46115d3565b6109de600061168e565b565b600c5481565b6000600760009054906101000a900473ffffffffffffffffffffffffffffffffffffffff16905090565b610a186115d3565b80600c8190555050565b606060018054610a31906127d5565b80601f0160208091040260200160405190810160405280929190818152602001828054610a5d906127d5565b8015610aaa5780601f10610a7f57610100808354040283529160200191610aaa565b820191906000526020600020905b815481529060010190602001808311610a8d57829003601f168201915b5050505050905090565b610ac6610abf611184565b8383611754565b5050565b610ad26115d3565b60003390508073ffffffffffffffffffffffffffffffffffffffff166108fc479081150290604051600060405180830381858888f19350505050158015610b1d573d6000803e3d6000fd5b5050565b610b32610b2c611184565b83611245565b610b71576040517f08c379a0000000000000000000000000000000000000000000000000000000008152600401610b689061299c565b60405180910390fd5b610b7d848484846118c0565b50505050565b6060610b8e82611139565b6000600660008481526020019081526020016000208054610bae906127d5565b80601f0160208091040260200160405190810160405280929190818152602001828054610bda906127d5565b8015610c275780601f10610bfc57610100808354040283529160200191610c27565b820191906000526020600020905b815481529060010190602001808311610c0a57829003601f168201915b505050505090506000610c3861191c565b90506000815103610c4d578192505050610c90565b600082511115610c82578082604051602001610c6a929190612af6565b60405160208183030381529060405292505050610c90565b610c8b84611933565b925050505b919050565b6000600560008473ffffffffffffffffffffffffffffffffffffffff1673ffffffffffffffffffffffffffffffffffffffff16815260200190815260200160002060008373ffffffffffffffffffffffffffffffffffffffff1673ffffffffffffffffffffffffffffffffffffffff16815260200190815260200160002060009054906101000a900460ff16905092915050565b610d316115d3565b600073ffffffffffffffffffffffffffffffffffffffff168173ffffffffffffffffffffffffffffffffffffffff1603610da0576040517f08c379a0000000000000000000000000000000000000000000000000000000008152600401610d9790612b8c565b60405180910390fd5b610da98161168e565b50565b600034600c541115610df3576040517f08c379a0000000000000000000000000000000000000000000000000000000008152600401610dea90612bf8565b60405180910390fd5b600d54600a60003373ffffffffffffffffffffffffffffffffffffffff1673ffffffffffffffffffffffffffffffffffffffff16815260200190815260200160002060009054906101000a900460ff1660ff1610610e86576040517f08c379a0000000000000000000000000000000000000000000000000000000008152600401610e7d90612c64565b60405180910390fd5b600e546001610e95600961199b565b610e9f9190612cb3565b1115610ee0576040517f08c379a0000000000000000000000000000000000000000000000000000000008152600401610ed790612d33565b60405180910390fd5b6000600b83604051610ef29190612d53565b908152602001604051809103902060009054906101000a900460ff1660ff1614610f51576040517f08c379a0000000000000000000000000000000000000000000000000000000008152600401610f4890612db6565b60405180910390fd5b6001600b83604051610f639190612d53565b908152602001604051809103902060008282829054906101000a900460ff16610f8c9190612de3565b92506101000a81548160ff021916908360ff1602179055506001600a60003373ffffffffffffffffffffffffffffffffffffffff1673ffffffffffffffffffffffffffffffffffffffff16815260200190815260200160002060008282829054906101000a900460ff166110009190612de3565b92506101000a81548160ff021916908360ff16021790555061102260086119a9565b61102c60096119a9565b6000611038600861199b565b905061104433826119bf565b61104e8184611bdc565b80915050919050565b60007f80ac58cd000000000000000000000000000000000000000000000000000000007bffffffffffffffffffffffffffffffffffffffffffffffffffffffff1916827bffffffffffffffffffffffffffffffffffffffffffffffffffffffff1916148061112257507f5b5e139f000000000000000000000000000000000000000000000000000000007bffffffffffffffffffffffffffffffffffffffffffffffffffffffff1916827bffffffffffffffffffffffffffffffffffffffffffffffffffffffff1916145b80611132575061113182611c80565b5b9050919050565b61114281611cea565b611181576040517f08c379a000000000000000000000000000000000000000000000000000000000815260040161117890612a08565b60405180910390fd5b50565b600033905090565b816004600083815260200190815260200160002060006101000a81548173ffffffffffffffffffffffffffffffffffffffff021916908373ffffffffffffffffffffffffffffffffffffffff160217905550808273ffffffffffffffffffffffffffffffffffffffff166111ff8361087d565b73ffffffffffffffffffffffffffffffffffffffff167f8c5be1e5ebec7d5bd14f71427d1e84f3dd0314c0f7b2291e5b200ac8c7c3b92560405160405180910390a45050565b6000806112518361087d565b90508073ffffffffffffffffffffffffffffffffffffffff168473ffffffffffffffffffffffffffffffffffffffff16148061129357506112928185610c95565b5b806112d157508373ffffffffffffffffffffffffffffffffffffffff166112b984610682565b73ffffffffffffffffffffffffffffffffffffffff16145b91505092915050565b8273ffffffffffffffffffffffffffffffffffffffff166112fa8261087d565b73ffffffffffffffffffffffffffffffffffffffff1614611350576040517f08c379a000000000000000000000000000000000000000000000000000000000815260040161134790612e8a565b60405180910390fd5b600073ffffffffffffffffffffffffffffffffffffffff168273ffffffffffffffffffffffffffffffffffffffff16036113bf576040517f08c379a00000000000000000000000000000000000000000000000000000000081526004016113b690612f1c565b60405180910390fd5b6113cc8383836001611d2b565b8273ffffffffffffffffffffffffffffffffffffffff166113ec8261087d565b73ffffffffffffffffffffffffffffffffffffffff1614611442576040517f08c379a000000000000000000000000000000000000000000000000000000000815260040161143990612e8a565b60405180910390fd5b6004600082815260200190815260200160002060006101000a81549073ffffffffffffffffffffffffffffffffffffffff02191690556001600360008573ffffffffffffffffffffffffffffffffffffffff1673ffffffffffffffffffffffffffffffffffffffff168152602001908152602001600020600082825403925050819055506001600360008473ffffffffffffffffffffffffffffffffffffffff1673ffffffffffffffffffffffffffffffffffffffff16815260200190815260200160002060008282540192505081905550816002600083815260200190815260200160002060006101000a81548173ffffffffffffffffffffffffffffffffffffffff021916908373ffffffffffffffffffffffffffffffffffffffff160217905550808273ffffffffffffffffffffffffffffffffffffffff168473ffffffffffffffffffffffffffffffffffffffff167fddf252ad1be2c89b69c2b068fc378daa952ba7f163c4a11628f55a4df523b3ef60405160405180910390a46115ce8383836001611d31565b505050565b6115db611184565b73ffffffffffffffffffffffffffffffffffffffff166115f96109e6565b73ffffffffffffffffffffffffffffffffffffffff161461164f576040517f08c379a000000000000000000000000000000000000000000000000000000000815260040161164690612f88565b60405180910390fd5b565b60006002600083815260200190815260200160002060009054906101000a900473ffffffffffffffffffffffffffffffffffffffff169050919050565b6000600760009054906101000a900473ffffffffffffffffffffffffffffffffffffffff16905081600760006101000a81548173ffffffffffffffffffffffffffffffffffffffff021916908373ffffffffffffffffffffffffffffffffffffffff1602179055508173ffffffffffffffffffffffffffffffffffffffff168173ffffffffffffffffffffffffffffffffffffffff167f8be0079c531659141344cd1fd0a4f28419497f9722a3daafe3b4186f6b6457e060405160405180910390a35050565b8173ffffffffffffffffffffffffffffffffffffffff168373ffffffffffffffffffffffffffffffffffffffff16036117c2576040517f08c379a00000000000000000000000000000000000000000000000000000000081526004016117b990612ff4565b60405180910390fd5b80600560008573ffffffffffffffffffffffffffffffffffffffff1673ffffffffffffffffffffffffffffffffffffffff16815260200190815260200160002060008473ffffffffffffffffffffffffffffffffffffffff1673ffffffffffffffffffffffffffffffffffffffff16815260200190815260200160002060006101000a81548160ff0219169083151502179055508173ffffffffffffffffffffffffffffffffffffffff168373ffffffffffffffffffffffffffffffffffffffff167f17307eab39ab6107e8899845ad3d59bd9653f200f220920489ca2b5937696c31836040516118b391906121b6565b60405180910390a3505050565b6118cb8484846112da565b6118d784848484611d37565b611916576040517f08c379a000000000000000000000000000000000000000000000000000000000815260040161190d90613086565b60405180910390fd5b50505050565b606060405180602001604052806000815250905090565b606061193e82611139565b600061194861191c565b905060008151116119685760405180602001604052806000815250611993565b8061197284611ebe565b604051602001611983929190612af6565b6040516020818303038152906040525b915050919050565b600081600001549050919050565b6001816000016000828254019250508190555050565b600073ffffffffffffffffffffffffffffffffffffffff168273ffffffffffffffffffffffffffffffffffffffff1603611a2e576040517f08c379a0000000000000000000000000000000000000000000000000000000008152600401611a25906130f2565b60405180910390fd5b611a3781611cea565b15611a77576040517f08c379a0000000000000000000000000000000000000000000000000000000008152600401611a6e9061315e565b60405180910390fd5b611a85600083836001611d2b565b611a8e81611cea565b15611ace576040517f08c379a0000000000000000000000000000000000000000000000000000000008152600401611ac59061315e565b60405180910390fd5b6001600360008473ffffffffffffffffffffffffffffffffffffffff1673ffffffffffffffffffffffffffffffffffffffff16815260200190815260200160002060008282540192505081905550816002600083815260200190815260200160002060006101000a81548173ffffffffffffffffffffffffffffffffffffffff021916908373ffffffffffffffffffffffffffffffffffffffff160217905550808273ffffffffffffffffffffffffffffffffffffffff16600073ffffffffffffffffffffffffffffffffffffffff167fddf252ad1be2c89b69c2b068fc378daa952ba7f163c4a11628f55a4df523b3ef60405160405180910390a4611bd8600083836001611d31565b5050565b611be582611cea565b611c24576040517f08c379a0000000000000000000000000000000000000000000000000000000008152600401611c1b906131f0565b60405180910390fd5b80600660008481526020019081526020016000209081611c4491906133bc565b507ff8e1a15aba9398e019f0b49df1a4fde98ee17ae345cb5f6b5e2c27f5033e8ce782604051611c749190612410565b60405180910390a15050565b60007f01ffc9a7000000000000000000000000000000000000000000000000000000007bffffffffffffffffffffffffffffffffffffffffffffffffffffffff1916827bffffffffffffffffffffffffffffffffffffffffffffffffffffffff1916149050919050565b60008073ffffffffffffffffffffffffffffffffffffffff16611d0c83611651565b73ffffffffffffffffffffffffffffffffffffffff1614159050919050565b50505050565b50505050565b6000611d588473ffffffffffffffffffffffffffffffffffffffff16611f8c565b15611eb1578373ffffffffffffffffffffffffffffffffffffffff1663150b7a02611d81611184565b8786866040518563ffffffff1660e01b8152600401611da394939291906134e3565b6020604051808303816000875af1925050508015611ddf57506040513d601f19601f82011682018060405250810190611ddc9190613544565b60015b611e61573d8060008114611e0f576040519150601f19603f3d011682016040523d82523d6000602084013e611e14565b606091505b506000815103611e59576040517f08c379a0000000000000000000000000000000000000000000000000000000008152600401611e5090613086565b60405180910390fd5b805181602001fd5b63150b7a0260e01b7bffffffffffffffffffffffffffffffffffffffffffffffffffffffff1916817bffffffffffffffffffffffffffffffffffffffffffffffffffffffff191614915050611eb6565b600190505b949350505050565b606060006001611ecd84611faf565b01905060008167ffffffffffffffff811115611eec57611eeb6124ce565b5b6040519080825280601f01601f191660200182016040528015611f1e5781602001600182028036833780820191505090505b509050600082602001820190505b600115611f81578080600190039150507f3031323334353637383961626364656600000000000000000000000000000000600a86061a8153600a8581611f7557611f74613571565b5b04945060008503611f2c575b819350505050919050565b6000808273ffffffffffffffffffffffffffffffffffffffff163b119050919050565b600080600090507a184f03e93ff9f4daa797ed6e38ed64bf6a1f010000000000000000831061200d577a184f03e93ff9f4daa797ed6e38ed64bf6a1f010000000000000000838161200357612002613571565b5b0492506040810190505b6d04ee2d6d415b85acef8100000000831061204a576d04ee2d6d415b85acef810000000083816120405761203f613571565b5b0492506020810190505b662386f26fc10000831061207957662386f26fc10000838161206f5761206e613571565b5b0492506010810190505b6305f5e10083106120a2576305f5e100838161209857612097613571565b5b0492506008810190505b61271083106120c75761271083816120bd576120bc613571565b5b0492506004810190505b606483106120ea57606483816120e0576120df613571565b5b0492506002810190505b600a83106120f9576001810190505b80915050919050565b6000604051905090565b600080fd5b600080fd5b60007fffffffff0000000000000000000000000000000000000000000000000000000082169050919050565b61214b81612116565b811461215657600080fd5b50565b60008135905061216881612142565b92915050565b6000602082840312156121845761218361210c565b5b600061219284828501612159565b91505092915050565b60008115159050919050565b6121b08161219b565b82525050565b60006020820190506121cb60008301846121a7565b92915050565b600081519050919050565b600082825260208201905092915050565b60005b8381101561220b5780820151818401526020810190506121f0565b60008484015250505050565b6000601f19601f8301169050919050565b6000612233826121d1565b61223d81856121dc565b935061224d8185602086016121ed565b61225681612217565b840191505092915050565b6000602082019050818103600083015261227b8184612228565b905092915050565b6000819050919050565b61229681612283565b81146122a157600080fd5b50565b6000813590506122b38161228d565b92915050565b6000602082840312156122cf576122ce61210c565b5b60006122dd848285016122a4565b91505092915050565b600073ffffffffffffffffffffffffffffffffffffffff82169050919050565b6000612311826122e6565b9050919050565b61232181612306565b82525050565b600060208201905061233c6000830184612318565b92915050565b61234b81612306565b811461235657600080fd5b50565b60008135905061236881612342565b92915050565b600080604083850312156123855761238461210c565b5b600061239385828601612359565b92505060206123a4858286016122a4565b9150509250929050565b6000806000606084860312156123c7576123c661210c565b5b60006123d586828701612359565b93505060206123e686828701612359565b92505060406123f7868287016122a4565b9150509250925092565b61240a81612283565b82525050565b60006020820190506124256000830184612401565b92915050565b6000602082840312156124415761244061210c565b5b600061244f84828501612359565b91505092915050565b6124618161219b565b811461246c57600080fd5b50565b60008135905061247e81612458565b92915050565b6000806040838503121561249b5761249a61210c565b5b60006124a985828601612359565b92505060206124ba8582860161246f565b9150509250929050565b600080fd5b600080fd5b7f4e487b7100000000000000000000000000000000000000000000000000000000600052604160045260246000fd5b61250682612217565b810181811067ffffffffffffffff82111715612525576125246124ce565b5b80604052505050565b6000612538612102565b905061254482826124fd565b919050565b600067ffffffffffffffff821115612564576125636124ce565b5b61256d82612217565b9050602081019050919050565b82818337600083830152505050565b600061259c61259784612549565b61252e565b9050828152602081018484840111156125b8576125b76124c9565b5b6125c384828561257a565b509392505050565b600082601f8301126125e0576125df6124c4565b5b81356125f0848260208601612589565b91505092915050565b600080600080608085870312156126135761261261210c565b5b600061262187828801612359565b945050602061263287828801612359565b9350506040612643878288016122a4565b925050606085013567ffffffffffffffff81111561266457612663612111565b5b612670878288016125cb565b91505092959194509250565b600080604083850312156126935761269261210c565b5b60006126a185828601612359565b92505060206126b285828601612359565b9150509250929050565b600067ffffffffffffffff8211156126d7576126d66124ce565b5b6126e082612217565b9050602081019050919050565b60006127006126fb846126bc565b61252e565b90508281526020810184848401111561271c5761271b6124c9565b5b61272784828561257a565b509392505050565b600082601f830112612744576127436124c4565b5b81356127548482602086016126ed565b91505092915050565b6000602082840312156127735761277261210c565b5b600082013567ffffffffffffffff81111561279157612790612111565b5b61279d8482850161272f565b91505092915050565b7f4e487b7100000000000000000000000000000000000000000000000000000000600052602260045260246000fd5b600060028204905060018216806127ed57607f821691505b602082108103612800576127ff6127a6565b5b50919050565b7f4552433732313a20617070726f76616c20746f2063757272656e74206f776e6560008201527f7200000000000000000000000000000000000000000000000000000000000000602082015250565b60006128626021836121dc565b915061286d82612806565b604082019050919050565b6000602082019050818103600083015261289181612855565b9050919050565b7f4552433732313a20617070726f76652063616c6c6572206973206e6f7420746f60008201527f6b656e206f776e6572206f7220617070726f76656420666f7220616c6c000000602082015250565b60006128f4603d836121dc565b91506128ff82612898565b604082019050919050565b60006020820190508181036000830152612923816128e7565b9050919050565b7f4552433732313a2063616c6c6572206973206e6f7420746f6b656e206f776e6560008201527f72206f7220617070726f76656400000000000000000000000000000000000000602082015250565b6000612986602d836121dc565b91506129918261292a565b604082019050919050565b600060208201905081810360008301526129b581612979565b9050919050565b7f4552433732313a20696e76616c696420746f6b656e2049440000000000000000600082015250565b60006129f26018836121dc565b91506129fd826129bc565b602082019050919050565b60006020820190508181036000830152612a21816129e5565b9050919050565b7f4552433732313a2061646472657373207a65726f206973206e6f74206120766160008201527f6c6964206f776e65720000000000000000000000000000000000000000000000602082015250565b6000612a846029836121dc565b9150612a8f82612a28565b604082019050919050565b60006020820190508181036000830152612ab381612a77565b9050919050565b600081905092915050565b6000612ad0826121d1565b612ada8185612aba565b9350612aea8185602086016121ed565b80840191505092915050565b6000612b028285612ac5565b9150612b0e8284612ac5565b91508190509392505050565b7f4f776e61626c653a206e6577206f776e657220697320746865207a65726f206160008201527f6464726573730000000000000000000000000000000000000000000000000000602082015250565b6000612b766026836121dc565b9150612b8182612b1a565b604082019050919050565b60006020820190508181036000830152612ba581612b69565b9050919050565b7f4574686572207061696420697320696e636f7272656374000000000000000000600082015250565b6000612be26017836121dc565b9150612bed82612bac565b602082019050919050565b60006020820190508181036000830152612c1181612bd5565b9050919050565b7f596f752068617665206578636565646564206d696e74696e67206c696d697400600082015250565b6000612c4e601f836121dc565b9150612c5982612c18565b602082019050919050565b60006020820190508181036000830152612c7d81612c41565b9050919050565b7f4e487b7100000000000000000000000000000000000000000000000000000000600052601160045260246000fd5b6000612cbe82612283565b9150612cc983612283565b9250828201905080821115612ce157612ce0612c84565b5b92915050565b7f596f752068617665206578636565646564204d617820537570706c7900000000600082015250565b6000612d1d601c836121dc565b9150612d2882612ce7565b602082019050919050565b60006020820190508181036000830152612d4c81612d10565b9050919050565b6000612d5f8284612ac5565b915081905092915050565b7f54686973204e46542068617320616c7265616479206265656e206d696e746564600082015250565b6000612da06020836121dc565b9150612dab82612d6a565b602082019050919050565b60006020820190508181036000830152612dcf81612d93565b9050919050565b600060ff82169050919050565b6000612dee82612dd6565b9150612df983612dd6565b9250828201905060ff811115612e1257612e11612c84565b5b92915050565b7f4552433732313a207472616e736665722066726f6d20696e636f72726563742060008201527f6f776e6572000000000000000000000000000000000000000000000000000000602082015250565b6000612e746025836121dc565b9150612e7f82612e18565b604082019050919050565b60006020820190508181036000830152612ea381612e67565b9050919050565b7f4552433732313a207472616e7366657220746f20746865207a65726f2061646460008201527f7265737300000000000000000000000000000000000000000000000000000000602082015250565b6000612f066024836121dc565b9150612f1182612eaa565b604082019050919050565b60006020820190508181036000830152612f3581612ef9565b9050919050565b7f4f776e61626c653a2063616c6c6572206973206e6f7420746865206f776e6572600082015250565b6000612f726020836121dc565b9150612f7d82612f3c565b602082019050919050565b60006020820190508181036000830152612fa181612f65565b9050919050565b7f4552433732313a20617070726f766520746f2063616c6c657200000000000000600082015250565b6000612fde6019836121dc565b9150612fe982612fa8565b602082019050919050565b6000602082019050818103600083015261300d81612fd1565b9050919050565b7f4552433732313a207472616e7366657220746f206e6f6e20455243373231526560008201527f63656976657220696d706c656d656e7465720000000000000000000000000000602082015250565b60006130706032836121dc565b915061307b82613014565b604082019050919050565b6000602082019050818103600083015261309f81613063565b9050919050565b7f4552433732313a206d696e7420746f20746865207a65726f2061646472657373600082015250565b60006130dc6020836121dc565b91506130e7826130a6565b602082019050919050565b6000602082019050818103600083015261310b816130cf565b9050919050565b7f4552433732313a20746f6b656e20616c7265616479206d696e74656400000000600082015250565b6000613148601c836121dc565b915061315382613112565b602082019050919050565b600060208201905081810360008301526131778161313b565b9050919050565b7f45524337323155524953746f726167653a2055524920736574206f66206e6f6e60008201527f6578697374656e7420746f6b656e000000000000000000000000000000000000602082015250565b60006131da602e836121dc565b91506131e58261317e565b604082019050919050565b60006020820190508181036000830152613209816131cd565b9050919050565b60008190508160005260206000209050919050565b60006020601f8301049050919050565b600082821b905092915050565b6000600883026132727fffffffffffffffffffffffffffffffffffffffffffffffffffffffffffffffff82613235565b61327c8683613235565b95508019841693508086168417925050509392505050565b6000819050919050565b60006132b96132b46132af84612283565b613294565b612283565b9050919050565b6000819050919050565b6132d38361329e565b6132e76132df826132c0565b848454613242565b825550505050565b600090565b6132fc6132ef565b6133078184846132ca565b505050565b5b8181101561332b576133206000826132f4565b60018101905061330d565b5050565b601f8211156133705761334181613210565b61334a84613225565b81016020851015613359578190505b61336d61336585613225565b83018261330c565b50505b505050565b600082821c905092915050565b600061339360001984600802613375565b1980831691505092915050565b60006133ac8383613382565b9150826002028217905092915050565b6133c5826121d1565b67ffffffffffffffff8111156133de576133dd6124ce565b5b6133e882546127d5565b6133f382828561332f565b600060209050601f8311600181146134265760008415613414578287015190505b61341e85826133a0565b865550613486565b601f19841661343486613210565b60005b8281101561345c57848901518255600182019150602085019450602081019050613437565b868310156134795784890151613475601f891682613382565b8355505b6001600288020188555050505b505050505050565b600081519050919050565b600082825260208201905092915050565b60006134b58261348e565b6134bf8185613499565b93506134cf8185602086016121ed565b6134d881612217565b840191505092915050565b60006080820190506134f86000830187612318565b6135056020830186612318565b6135126040830185612401565b818103606083015261352481846134aa565b905095945050505050565b60008151905061353e81612142565b92915050565b60006020828403121561355a5761355961210c565b5b60006135688482850161352f565b91505092915050565b7f4e487b7100000000000000000000000000000000000000000000000000000000600052601260045260246000fdfea264697066735822122031d8e973942e7b12d981ffd21515aa0191f51b1ec2ff95eaf0e360bc93f3227964736f6c63430008110033",
  "linkReferences": {},
  "deployedLinkReferences": {}
}